:100E4C000A128A11292F0313831606148614061509
:100E5C0086150616071087100711871107128712BF
:100E6C00071383120608A00020080139A1002108ED
:100E7C000139A10020080139A200A2092208013978
:100E8C00A20020080239A300A30C23080139A300F7
:100E9C0020080239A400A40CA40924080139A400D8
:100EAC0020080439A500A50CA50C25080139A500BE
:100EBC0020080439A600A60CA60C2609A6080139A0
:100ECC00A60020080839A700A70CA70CA70C270818
:100EDC000139A70020080839A800A80CA80CA80CF8
:100EEC00A80928080139A80020081039A900A90C64
:100EFC00A90CA90CA90C29080139A9002008103942
:100F0C00B000B00CB00CB00CB00CB009300801390A
:100F1C00B00021082405B10026082905B2002508D7
:100F2C002805B300310832043304B4002708300517
:100F3C00B50022082305B60021082605B7003508A0
:100F4C0036043704B80026082705B9002208240502
:100F5C00260528053005C00039084004C1002208C8
:100F6C002905C2002208240526052805C3004208CD
:100F7C004304C40023082605C50035084504C600F3
:100F8C0032083304C70027082905C8004008480464
:100F9C00C9003418D22FD42F0714D62F0710D62FF0
:100FAC003818D92FDB2F8714DD2F8710DD2F411830
:100FBC00E02FE22F0715E42F0711E42F4418E72F39
:100FCC00E92F8715EB2F8711EB2F4618EE2FF02FFB
:100FDC000716F22F0712F22F4718F52FF72F871647
:100FEC00F92F8712F92F4918FC2FFE2F0717382FCE
:040FFC000713382F70
:02400E00B13FC0
:00000001FF
